:020000041000EA
:1000000000B5324B212058609868022188439860DF
:10001000D860186158612E4B002199600221596106
:100020000121F02299502B49196001219960352056
:1000300000F044F80222904214D00621196600F024
:1000400034F8196E01211966002018661A6600F04E
:100050002CF8196E196E196E052000F02FF8012189
:100060000842F9D1002199601B49196000215960AB
:100070001A491B48016001219960EB211966A021F2
:10008000196600F012F800219960164914480160C1
:100090000121996001BC002800D000471248134993
:1000A000086003C880F30888084703B5996A0420EC
:1000B0000142FBD001200142F8D103BD02B5186610
:1000C0001866FFF7F2FF186E186E02BD00000240BE
:1000D000000000180000070000035F00212200005C
:1000E000F4000018222000A00001001008ED00E03C
:1000F00000000000000000000000000074B24E7A12
:1001000000200420F7010010CB010010CD010010E9
:10011000C9010010C9010010C9010010C901001077
:10012000C9010010C9010010C9010010CF01001061
:10013000C9010010C9010010D1010010D301001045
:10014000C1010010C1010010C1010010C101001067
:10015000C1010010C1010010C1010010C101001057
:10016000C1010010C1010010C1010010C101001047
:10017000C1010010C1010010C1010010C101001037
:10018000C1010010C1010010C1010010C101001027
:10019000C1010010C1010010C1010010C101001017
:1001A000C1010010C1010010C1010010C101001007
:1001B000C1010010C1010010C1010010C1010010F7
:1001C000EFF30580103800BE00BE00BE00BE00BECA
:1001D00000BE00BEF2EB887158690010786900100B
:1001E0003802001090A31AE71E481F49086006C88D
:1001F00081F3088810471D480068002801D019487D
:10020000F3E70DA40ECC002902D000F012F8F9E7B4
:100210001749184A002000E001C19142FCD116495B
:100220008847164988471649884700BEFDE701C937
:1002300001C29A42FBD3704778690010C0000020C9
:10024000B0150020687E001000000420000004208B
:10025000687E001000100420001004200000000040
:10026000704700000000000008ED00E0000000D032
:10027000B0150020E4310020051F0010D502001049
:10028000FD1E0010F8B5C04606480749091A8B1034
:10029000C90FC91810B5491003D0044B002B00D06A
:1002A000984710BDB0150020B015002000000000D8
:1002B000054B10B5002B03D00449054800E000BFF2
:1002C000FFF7E2FF10BDC04600000000C825002077
:1002D00024650010F0B5DE46454657464E46E0B56B
:1002E00089B001F051FF0021974801F051FFFA2039
:1002F000C00001F00BF804AB9B465A46934B5D4699
:1003000013CB13C21B68D024136008AB9846012797
:10031000240640CD300000F07BF93B00B34063621F
:100320004545F6D104236361043363610833A36157
:100330001033636104F084FB1F211A2000F026F9BA
:10034000002200211A2000F03BF900211A2000F0C1
:100350004BF9E0217E4AC9011368D0240B407D4946
:1003600004250B607C4B0427196880235B044B40F9
:100370007A4924060B407A490B6000231361794BBC
:100380000093794B9946794B0193102398460823A3
:10039000774E6361434601206361A76101F06AF80B
:1003A0000120656101F066F80120A56101F062F8A5
:1003B0000120656101F05EF84346A36104239A467B
:1003C0000120A76101F056F80120656101F052F8A3
:1003D00001235B429C46E2445346002BF0D1664425
:1003E000002ED7D132360120A76101F043F8013E3B
:1003F0000120656101F03EF8002EF4D108366561F8
:100400003F23A661033BFDD2434601206361A56102
:1004100001F030F80120656101F02CF80120A561A0
:1004200001F028F80120656101F024F8434601201D
:10043000A361A56101F01EF80120656101F01AF8C1
:100440000120A56101F016F80120656101F012F8A4
:100450000120A56101F00EF80120656101F00AF8A4
:1004600066610120A56101F005F80120656101F0D8
:1004700001F8009B00269A460321300001F0A0FB02
:100480004346002956D163613A4B0120A7611F60A2
:1004900000F0F0FF0120656100F0ECFF0120A56194
:1004A00000F0E8FF0120656100F0E4FF8022284BA6
:1004B000520019681142FCD0596833002E4A203B83
:1004C000934239D902239C462C4B0136E2449E428A
:1004D000D2D14346A36164230493294B02AAD3805B
:1004E0004B461B68012204219B68019805F0D2F954
:1004F0004B461B680122042158469B6805F0CAF947
:100500004B461B6802A8012202219B68063005F0B9
:10051000C1F94B461B6801221A499B681A4805F02D
:10052000B9F94B461B68986805F018F8142000F0DC
:10053000EDFE2CE7A361A7E75346198002239C46F2
:100540000136E24498E7C046301000202C650010C8
:1005500000C0044000D0044008C004400F00000F59
:1005600008D00440B825002084140020286500101D
:100570004610000000E00440DB0500000A06000011
:10058000DC050000B80B0000F8250020094A8300B4
:100590009A1810B514684022544080322240064C0C
:1005A000C000A44663441A60044B9C46604441600A
:1005B00010BDC04604C0014004D0014000400140CD
:1005C000074B8000C3181B68C90092000A435A40B9
:1005D0000C231340034A9446604403607047C046AE
:1005E00004C0014004D001408000002905D0064B22
:1005F0009C464023604403607047044B9C46402364
:1006000060440360F8E7C04604E0014004F00140A4
:100610000123D0228340120693629361094A83002A
:100620009A1811684022514080320A400649C000A1
:100630008C4663441A60054B9C4605236044436026
:100640007047C04604C0014004D001400040014052
:100650008023DB051868000F7047C0460FB400B553
:10066000084883B001F0E8FD049B002B07D005A9E2
:100670001800019101F0D8FB034801F0DDFD0120D5
:1006800001F0EAFB3C6500104C65001070B5EFF31B
:10069000108C72B60D4D2B68002BFCD0BFF35F8F12
:1006A0000724CB08C618C05C01230C40A3401C00E3
:1006B0000440034207D118433070BFF35F8F2C60B2
:1006C0008CF3108870BD1000FFF7C8FF2C0100D01C
:1006D000F8B54746CE46884680B5EFF3108C72B623
:1006E000214D2C68002CFCD0BFF35F8F9A422CD890
:1006F000D4080727055D061901241740BC402C4289
:100700001FD007210127894609E0D408055D061995
:100710004C4639001440A1400C00294211D001324E
:100720009342F2D201204042BFF35F8F00220E4B72
:100730001A608CF3108800280FDBC0BCB946B046A5
:10074000F8BD254310003570EEE7BFF35F8F00233F
:100750002B608CF31088012040424346002BECD0E4
:100760000898FFF77BFFC0462C0100D0044A1078A0
:10077000431CDBB2172B00D9102313707047C046FF
:10078000A80F002010B5064B064C82B00100009364
:1007900018221F232000FFF79BFF02B010BDC046A8
:1007A00050650010502100200021044B044ABFF383
:1007B0005F8F02C39342FAD17047C046000100D058
:1007C000800100D0054B064A1360064A136053604F
:1007D0009360D36013615361936170478080808020
:1007E00000E400E004E400E01F2318401E3B8340C7
:1007F000002905D0C021044A4900535013607047B6
:10080000802201498B50FAE700E100E0012282409A
:10081000034B1B6813405A1E9341D8B27047C04621
:1008200000E100E001238340014A13607047C046A5
:1008300000E200E0064B10309B688000C358054A78
:1008400000209B1A2F229A424041C0B27047C046F6
:1008500000ED00E0AC0F002070B50D00EFF3108646
:1008600072B60F4A1368002BFCD0BFF35F8F0D4B9D
:1008700010309B6884001B590B4A934203D09D4261
:1008800001D001F06BF8074B9B681D51BFF35F8FE0
:10089000BFF35F8F0022024B1A6086F3108870BD91
:1008A000240100D000ED00E0C1010010F0B54E467B
:1008B0004546DE465746E0B583B0060000919046B7
:1008C000EFF3108B72B6654A1368002BFCD0BFF3B0
:1008D0005F8F0025624B5D579A46002D00DA79E064
:1008E00052466B005F4C5F19BF000193E3199946B4
:1008F0009B79103613705C4BB6009B6899590B1BA3
:100900002F2B33D9594B994200D07CE0019B023701
:100910009C46574B6544AD006353564BE719043B67
:10092000DB1B554A1B055B0D651913436B80534B4D
:100930000121AB80FF23AB714346EB71009BAB60A1
:100940004B460B431900484B9B689951BFF35F8F8F
:10095000BFF35F8F0022414B1A608BF3108803B006
:10096000F0BCBB46B246A946A046F0BD01200A0035
:100970008243D379434549D9BC464746884607E078
:100980005800C01880002018C179B94228D9020047
:100990000623D356002BF3DA9A46131D9C46414694
:1009A000B846374F484663460438C01A0005324BF4
:1009B000400D1843019B908095715A19534692003F
:1009C000A418A37143462F4AE371009B2260A780BD
:1009D000A360B8E700F0C2FF002553465D577FE7EC
:1009E0009A464146131DB84667469C469088043790
:1009F00040050015E7196044C01BE0270005400DC5
:100A00003F020743CEE700F0A9FF7FE713001E492E
:100A10001B1B5B415943090D154BBD1CE353154B83
:100A20006519043B5B1B1B05134D5B0D2B43AC464B
:100A30004D466B8065460437131FE719DB1B1B050A
:100A40005B0D1D434B4699714146D97100999D80BC
:100A5000996049460B4B0143136074E7240100D0B1
:100A6000DD310020AC0F002000ED00E0C1010010DE
:100A700000A1FFFFDC0F002000E0FFFF01BDFFFF32
:100A800001BD000001488047AAAA000070B50124FA
:100A90000443EFF30581EFF3108C72B6214A13681B
:100AA000002BFCD0BFF35F8F1F4B05001F4AED1AD0
:100AB0006D416A43120D1E4D8900AE6852B27658E0
:100AC000A6421CD00621595691421CD012215956DB
:100AD000914222D01E215956914220D02A215956A6
:100AE0000324914210D0134B19781A708171BFF30F
:100AF0005F8F00220B4B1A608CF3108870BDAB68BF
:100B00000D4C5C50EFE700246100091989005B1867
:100B1000FF21997109499980E5E70124F4E702244E
:100B2000F2E7C046240100D0AC0F0020AAAA0000C2
:100B300000ED00E0DD310020C101001001BDFFFF2C
:100B400010B5084B084C82B0010000930022052329
:100B50002000FFF7BDFD002801DB1F23181A02B09B
:100B600010BDC0466C650010E1310020024B9C4670
:100B7000614489000160704740000034F0B5FF23F4
:100B8000C646144D144F2C00984600B5BD420DD3F7
:100B90001DE0FFF7EBFD01002800FFF7E7FF4346EC
:100BA000B380BFF35F8FBC4211D2250023682600BB
:100BB0000834002BEDD1FFF7D9FD01002800FFF725
:100BC000D5FF43463371BFF35F8FBC42EDD380BC8A
:100BD000B846F0BDA8150020B015002010B50400DF
:100BE000FFF7C4FD01002000FFF7C0FFFF232371C2
:100BF000BFF35F8F10BDC04610B504000120FFF7A2
:100C0000C1FD034BC3189B002360BFF35F8F10BD72
:100C100040000034034B9C46614489000160BFF3EF
:100C20005F8F7047400000340A4B1968EFF3108063
:100C300072B60A68002AFCD0BFF35F8F1B68BFF34F
:100C40005F8F00221A6080F3108840BF00200021CF
:100C50007047C046BC310020F0B5DE4657464E46D0
:100C60004546E0B585B0EFF3058203231340B54A4E
:100C70009900575801229A4088469346B24B1A6011
:100C8000B24B02935B46B24843630823FE5E002EDC
:100C900035DABB881BB2002B00DBA8E0BB79002B48
:100CA00000D0E9E00823F85E00281EDB43007A69E3
:100CB0001B18DB00D3189D68DC686B1C00D108E1B1
:100CC000A34801004144826A0B69AE1A9B1A9E42F6
:100CD00013D35A46036A1A420FD09D4800F0B8FB5E
:100CE0008C4202DCCED18542CCD940BF05B0F0BCED
:100CF000BB46B246A946A046F0BD0D61EDE77A6954
:100D0000730091469B19DB0099444B469C68DD6853
:100D100000F09EFB8D42BCDC00D1FCE0002D00DA2F
:100D2000E1E04A464B4652691B699246029A934259
:100D300000D1D2E04A460821785E5288000451462C
:100D400010439847009001910099019A0B00100000
:100D5000134300D1C7E013000A00002800DBDEE0E7
:100D600020002900801A99414B469860D9600022E2
:100D70009A5E002A00DA8CE753009C187D69E40033
:100D80002C190093A368E4689A468C4200DD80E742
:100D900002D1834200D97CE708239C46BC443A81B7
:100DA00003976746009BB4463E000EE08C4200D19C
:100DB000C3E01E000023F25E002A0BDB53009C18E8
:100DC000E4002C19A768E468BA469B18DB00EB180E
:100DD0008C42EBDD330066469C464B461A806346E8
:100DE000039F1E80BB881BB2002B00DA56E73A69CE
:100DF000EFF3108172B61368002BFCD0BFF35F8F46
:100E00000123BE885B42BB8036B23B69BFF35F8F74
:100E100000221A6081F31088002E00DA3EE73B00C2
:100E200008333A0099467D6973009B19DB00EB1883
:100E30009968DC688C460820115E4846002910DB62
:100E4000009306E0A34240D00023F95E3800002959
:100E500006DB4F007F18FF00EF19FB68A342F1DDAE
:100E6000009B068000201E5E1980002EDCDA170031
:100E7000BB79002B00D115E70023BB713D0008238F
:100E8000F95E08354B1C00D12FE77C690800A446A9
:100E900003E035004B1C00D106E74B005B180A004D
:100EA0006146DB00CE18C95E73881BB2002BF0DAF6
:100EB00001235B42DC17B360F4608242EAD02980F0
:100EC0003B89100033803A81E4E7BB686345BBD9B6
:100ED000C6E7631C00D0F3E6FFE6534650461B69A5
:100EE0009847002823D14B461B883A693B81EFF392
:100EF000108372B611680029FCD0BFF35F8F49469A
:100F00007A880A803A697E80BFF35F8F0021116082
:100F100083F31088BDE6844200D8FFE6B9E60C48AA
:100F200000F096FA009B019CC01861411CE75346F3
:100F30001A685B680092019306E7824500D838E79B
:100F400048E7C046E82500203C700540590C0010D9
:100F50000040054070B52E4C2569002D04D00A21B3
:100F60002C48FFF703FE70BD2B4E0321300000F02C
:100F700065FAE660FFF7FAFB284B03229C46D02374
:100F800022701B061B6801216370254B6044A3601F
:100F90000F23800020610220638063694942A180A1
:100FA00019800231198647311D83585218315A521F
:100FB00075325C3999521832013199521832013127
:100FC0009952183201319952083518329D52023126
:100FD000183299521832013199521832013199520E
:100FE00018320131995218320131995218320131B7
:100FF00099520C4B0C49DC6001303562FFF72CFC38
:1010000001210320FFF7F0FB084B1D60A7E7C04656
:10101000F40F0020BC3100200040054040000034A7
:10102000FFFF1000E8250020590C00103860054033
:1010300000487047F40F0020F8B51F0008AB1B787C
:1010400004001600002B08D100F00AFA32003B0021
:10105000121A8B41002B00DA53E02269EFF3108063
:1010600072B61368002BFCD0BFF35F8F0223E15EE2
:1010700063694A005218D2009B18002937DB1A888E
:1010800062802269BFF35F8F0025156080F31088AE
:10109000069A9E60DF601A61079A5A615A88013287
:1010A0005204520C101C002A1FD082B2588008042F
:1010B00010432669EFF3108772B63268002AFCD01D
:1010C000BFF35F8FA2881A80A1802369BFF35F8F6F
:1010D00000221A6087F310880B4923788C4601326E
:1010E0009A40E36863441A60F8BD0120DDE7236994
:1010F000BFF35F8F00221A6080F310880120404206
:10110000F2E70020F0E7C0463C20000070B5010087
:101110000469EFF3108C72B620680028FCD0BFF38E
:101120005F8F02200D5E4C6968004019C0002418D2
:10113000002D37DB208848800869BFF35F8F0026C9
:1011400006608CF31088E3606388049801332061A3
:101150005B0405985B0CA26060611A1C002B1FD019
:1011600093B22804628018430A69EFF3108C72B6B8
:101170001368002BFCD0BFF35F8F8B8823808D809A
:101180000B69BFF35F8F00221A608CF310880B7815
:1011900001329A40CB6808498C4663441A6070BD9E
:1011A0000122DDE70B69BFF35F8F00221A608CF329
:1011B000108801204042F2E73C20000010B543892E
:1011C0000A1493421ADD53009B184269DB00D318BE
:1011D0000469EFF3108C72B62268002AFCD0BFF3CA
:1011E0005F8F5A88090494B2090C8A4208D00369B7
:1011F000BFF35F8F00221A608CF31088002010BDAF
:101200008022120214435C80012302698371BFF3C0
:101210005F8F002111608CF31088044902788C469E
:101220009340C268012062441360E8E73C2000005C
:1012300040787047F0B504000D0006267642F71797
:10124000C64636196F4100B582B08F4214D811D00E
:1012500000F006F932003B00121A8B41002B17DC1C
:10126000002B47D02000290000F076F902B080BCA6
:10127000B846F0BD8642EBD90022002316001F00BD
:1012800000F0EEF832003B00121A8B41002BE7DD34
:1012900000F0E6F832003B00121A8B41002B0ADB0B
:1012A00000230193154B3200009315483B00FFF7D4
:1012B0002DFF0028D6DB00239C46B046114A124E73
:1012C000736A9F4204D8B16A4145CBD29F42C9D1CB
:1012D0001168EFF3108072B60B68002BFCD0BFF3DF
:1012E0005F8F1368BFF35F8F6146196080F31088CA
:1012F00020BFE5E7002AB5D0CAE7C046290C001098
:10130000F40F0020BC3100200040054070B50600FD
:1013100000F0A6F8FA2204000D000023300000219E
:10132000920000F003FD8023001969411B069942D9
:1013300002D3012002494042FFF77CFF70BDC04646
:10134000FFFFFF7FF0B5D6464F464646C0B50400C6
:101350000D0082B0EFF305878946002F0ED0344987
:1013600000204B6AAB4203D38A6A0130A24226D3E3
:1013700002B0E0BCBA46B146A846F0BD2D4B984637
:10138000DB689A46434650461E7800F061F80B0031
:10139000514602000436B600715820008E1A29000A
:1013A000801A99418F4211DC0ED020BF204A0020C4
:1013B000536A4B45DCD3926A0130A242D8D25B1B00
:1013C0005A1E9341D8B2D3E78642EED900F048F8CE
:1013D00022002B00121A8B41002B1ADB00230193F1
:1013E000154B2200009340462B00FFF78FFE011E95
:1013F0000FDD0F4B5A6A4A4517D39B6AA34212D39B
:101400004046FFF7DBFE0A4A0020536A4B45AFD344
:10141000D1E7074A0020536A4B45A9D3926A0120BD
:10142000A242A5D2CBE74A45EAD120BFE8E7C046B1
:1014300000400540F40F0020290C001010B5024AAE
:101440000248FFF723F910BD9065001054210020D9
:101450000300416A0A00986A596A8A42FAD17047C1
:10146000034B596A0A00986A596A9142FAD1704747
:101470000040054070B5002806DB1C4A916A936A5B
:101480005B1A9842FBD870BD04000025174A536AC6
:101490001900966A536A8B42FAD130001900241859
:1014A0004D41AB4218D9114B5B6A1C005A1C0AD043
:1014B000012301246442E5175B420C494A6A9A42BF
:1014C000FCD39A42DFD1094A02E0516A9942DAD14B
:1014D000916AA142F9D3D6E7AB4201D1A642E2D844
:1014E000024A2B00526A9542E7D8EAE700400540DD
:1014F00070B504000D00174A536A1900966A536AC2
:101500008B42FAD13000190024184D41AB4216D855
:1015100013D0104B2A005B6A9D4203D90D494B6AD8
:101520009342FCD3934207D10A4A02E0516A99429E
:1015300002D1916AA142F9D370BDA642E9D9054B07
:101540005B6A1C005A1CEFD0012201246442E5179B
:101550005242E3E700400540064A536A9942FCD8EC
:1015600007D1044B02E05A6A914202D19A6A824240
:10157000F9D3704700400540F8B5DE464E46574661
:101580004546E0B58B4605000A991800160000F0A4
:101590003FFB0A9B6C001F02314B64199C46A40060
:1015A0006444636881469F4200D967602B1FDBB2A9
:1015B0009846C02342469B01E318012A2DD9802278
:1015C00012011A60274BAD0059599A4600291BD1C8
:1015D0007301E026226853401E40802342465B018F
:1015E000E3181E60012A2DD9802380229B01E31875
:1015F00012011A6053464A4667605A51F0BCBB4616
:10160000B246A946A046F8BD586900F001FB01307A
:1016100043001B18033BFDD2DAE75A46012ACED11C
:1016200002321A60023AA3681A42FCD07301E02623
:101630002268AD0053401E4080230A4A5B01924657
:10164000E3181E605A462168514003220A401A607E
:1016500001225B469A40A3681A42FCD0C4E7C04608
:101660000080004058210020F0B546464F46D6463F
:10167000C0B51F00334B44009C462418A4006444AA
:10168000636888461600FF2B02D880235B006360E6
:10169000031FDBB29A46C02352469B01E318012A7E
:1016A0002DD9802212011A60274B8500595999467D
:1016B00000291BD17301E026226853401E4080237D
:1016C00052465B01E3181E60012A2DD98023802237
:1016D0009B01E31812011A6080235B0063604B4694
:1016E0005F51E0BCBA46B146A846F0BD586900F06B
:1016F0008FFA013043001B18033BFDD2DAE7424664
:10170000012ACED102321A60023AA3681A42FCD0F2
:101710007301E0262268850053401E4080230A4A58
:101720005B019146E3181E60424621685140032246
:101730000A401A60012342469340A2681342FCD03B
:10174000C4E7C0460080004058210020014B8000C3
:10175000C058704758210020F8B5040020481D00EB
:1017600017000E0000F054FA0100380000F050FAA3
:10177000069B29041B0319432368002B1EDB194B0E
:10178000194DE21853425A4180235B019C461203D3
:10179000164B62441A60164B1A6017002B689F4361
:1017A000FBD1144B2660E2182123A060136023684C
:1017B000002BFCDA0823E1601360F8BD3F232268A8
:1017C0001340B342DBD1A3681B051B0D8342D6D166
:1017D000EE22E368D20213408B42D0D1EDE7C0463F
:1017E000001BB7000040FDBF08C0004000E0004003
:1017F00000F000400430000010B580241C4BE405CC
:101800001C6000281AD001231A4C18431A4BDC61C3
:101810001A4C44401C62596298628021144BC905DD
:101820001960174817490860E021C9041960002AA7
:1018300007D18022144B12061A6010BD0E4BD861DE
:10184000EBE753019B1A9B009A18802312015B045B
:101850009A4209D213000D490B60074B5A6080224F
:10186000094BD2051A60E8E7094B1A00F3E7C046B6
:1018700000B00540D3C007B0008005402D3FF84FB1
:10188000FCFF01000820014000A00540C025002009
:10189000FFFFFF008023024A9B000B43D362704787
:1018A00000800540142310B50100188804331B88FC
:1018B000984710BD162310B50100188802331B8805
:1018C000984710BDF8B54746CE4680B50F1E19D0D3
:1018D00014239946043304000025012698464B46FC
:1018E0001888434621681B88984701C4431E9841C5
:1018F000013540420640AF42F1D13000C0BCB9468C
:10190000B046F8BD0126F8E7142370B50400188826
:1019100004331B880D000549984703000020002C64
:1019200001DB0130A04029009847C0465542000025
:10193000AA23064A1B0113608D235B00D360044970
:10194000044B19605368002BFCDA704700400240DA
:1019500000B0FA00006002407047C04610B5014870
:10196000FEF77CFEB465001070B5074D074EB5421A
:1019700009D20024013E761BB60808CD9847230003
:101980000134B342F9D170BDE06400101C65001051
:10199000054B064A06491A60064A074B1A601000B2
:1019A0000B689843FBD1704700E00040BFCDFBFEC1
:1019B00008C00040FE7F3C0000F00040044BDB6CA0
:1019C000002B03D18022034BD2021A607047C0461D
:1019D000000011504C201150044A054B1A60054A72
:1019E0001368DB018033FBD17047C046FFFFFF0166
:1019F00000F0004008C000404022034B9A675A673D
:101A00001A67DA667047C04600F0014010B5FEF76D
:101A1000CBFE10BDF8B52B492B4C2C4D641AA610EB
:101A20003200302E00D930222800920000F0EEF96A
:101A3000BC2C3ED8731C18000127254A302B3BD9FB
:101A40002F212C196407E40F891B052917D9302B86
:101A500015D8002C33D0B300EA503F1B33199B003C
:101A60007908EB18C900C9181A605A6008338B420C
:101A7000FAD101233B421CD09F433E18731CB10096
:101A80006A50302B15D09B00EA50B31C2E2E10D07C
:101A90009B00EA50F31C2D2E0BD09B00EA50331D07
:101AA0002C2E06D09B00EA50731D2B2E01D09B00DC
:101AB000EA50084B9D60F8BD2F37BF1BC0E73000D0
:101AC000CBE7C04600010010C0010010000000205C
:101AD000C101001000ED00E0002310B5294C82B0D8
:101AE000A367FFF725FF0122274B1A60636C012BC8
:101AF000FCD10322254B1A60224A936B012BFCD1A7
:101B0000013300930121224A22480433FFF724FEC7
:101B1000052301210093204A2048FFF71DFE0022E3
:101B2000022104201E4BFFF79FFD0022012105200A
:101B30001C4BFFF799FD0022002107201A4BFFF7ED
:101B400093FD002200210820174BFFF78DFD802315
:101B5000DB000093002200210920134BFFF70CFD4E
:101B60000022104B00210620FFF77EFD0420FFF726
:101B7000EDFD0E4900F04CF801000020FFF78AFE51
:101B800002B010BD008000403CB0004030B00040CA
:101B9000002F685900800240008C864700C0024038
:101BA000001BB70040597307006CDC0240420F0075
:101BB00001480421014B184710100020C5180010DF
:101BC000124A936F9B0815D29066D166002905D002
:101BD000FFE7FFE7FFE7516F106F704704B5802103
:101BE0000906C2175140002800D0C84304F038FC51
:101BF000002104BDF0B5146E556E576F166FFFF7D8
:101C0000E3FF1466556657671667F0BD000000D005
:101C1000114A936F9B0813D210665166002905D0B4
:101C2000FFE7FFE7FFE7516F106F704704B500282B
:101C300001D00020C04304F013FC002104BDC046C5
:101C4000F0B5146E556E576F166FFFF7E5FF14660B
:101C5000556657671667F0BD000000D0132370B5B6
:101C60001D78012D19D014DD1F48FFF723FE060053
:101C70001E48FFF71FFE1E4C80223100200000F09E
:101C8000C5F8022D2DD01B48FFF70CFE1A4B18602B
:101C900070BD1A4B164CA364F5E7184B144C236027
:101CA0006360A360E36023616361A361E361236216
:101CB0006362A362E36223636363A363E3632364F6
:101CC0006364A364E36423656365A365E3652366D6
:101CD0006366A366E36623676367A367E367A3643A
:101CE000D1E7064BA364CEE75344000053460000FF
:101CF000381700204C330000B8310020011D0010BF
:101D000007B5604601880A0A0230DF2AFAD1C9B253
:101D1000820804D3028840880004104300E0006871
:101D2000014A5050039007BD3817002051434343E8
:101D3000C9188C46110C83B24B4310B4040C614398
:101D400092B280B2504362431C041B0C001910BCB9
:101D500059411304120CC0185141614470470000EE
:101D6000132310B512481C78FFF7A4FD0100012CC5
:101D70000AD003DD80220F4800F048F80E48FFF734
:101D800091FD0E4B186010BD0A4C5422200000F04B
:101D90003DF80B4B6365A365E36523666366A36645
:101DA000E36623676367A367E3672362E361E5E7AD
:101DB00053460000381800204C330000B831002092
:101DC000C51D001007B5604601880A0A0230DF2AE7
:101DD000FAD1C9B2820804D30288408800041043B3
:101DE00000E00068014A5050039007BD38180020F9
:101DF00001480421014B184720100020C51800108D
:101E0000014B1B681847000020100020014B5B6845
:101E1000184700002010002010B5002800D110BD88
:101E200000F0BEF9FBE7C04610B5094A030014688C
:101E300084B0002C08D0012200910648524203A928
:101E4000A047012004B010BD00F0F6F90020F9E72A
:101E5000BC250020191E001000BEFDE7094A030042
:101E60001068002805D00849C3188B4207D81360B2
:101E7000704706480449C31810608B42F7D9012007
:101E80004042F5E7B821002000000420E4310020A2
:101E9000030010B508001100002B05D1044B1A688F
:101EA0005B6800F017F910BD01204042FBE7C04617
:101EB000886500100300013B10B508001400012BD9
:101EC00006D801230022210000F084F8200010BD74
:101ED00001204042FBE7C046012040427047C04617
:101EE000012040427047C046012040427047C04632
:101EF0000300022200209A424041704710B5FFF7CC
:101F0000ABFFC04670B5FFF72FFD074D074EB5423A
:101F100009D20024013E761BB60808CD984723005D
:101F20000134B342F9D170BD1C6500102465001066
:101F3000030010B5080011001B68984710BDC0468B
:101F4000F0B5C64600B5437D07000D001600002B16
:101F500038D0002A2EDD00216A1E90466A5C037D7F
:101F60004C1C00200A2A0CD0A64216D043461B5D0A
:101F700021000D3B5A4253416A5CDBB24C1C0A2AD9
:101F8000F2D1002BF0D1814217DC022110483B68CE
:101F90009847A64207D02000E8E7864203DD311AC1
:101FA0003B6828189847AD19013D2B780D3B5A42E4
:101FB00053413B7580BCB846F0BD091A3B682818F0
:101FC0009847E2E70368110028009847F2E7C04607
:101FD00058660010F0B5DE4657464E464546E0B519
:101FE00085B017001C0006000D00FFF739FA00232A
:101FF000314A12184B41802109068B4202D301223B
:102000002E4B52422E4908008A4604F041FA0190B4
:102010006B1C03D1300003F073FD0500002C26D0AB
:10202000284B9846284B1C68002C15D0002F21D136
:10203000264F02E02469002C0ED02368002BF9D033
:102040003B68002B01D0A342F4D120002A003100CC
:10205000C0472469002CF0D1019B002B28D1280017
:1020600005B0F0BCBB46B246A946A046F0BD184B31
:102070009846D7E7154B994602ABDF1D0A239B46CE
:1020800002E02469002CE7D02368002BF9D04B46EE
:102090001B68002B01D0A342F3D12A00310020009D
:1020A000C0475B460122390020003B70C047E8E78B
:1020B000504604F0C5F9D2E740420F00FFFFFF7F12
:1020C000A8150020411F0010A8210020B4210020E5
:1020D000311F0010F8B557464E464546DE46984635
:1020E0001A4BE0B59B461A4B07000E0091469A46E4
:1020F000184D5B461C68002C03D115E02469002CA8
:1021000012D02B68002B01D0A342F7D1A368002B7B
:10211000F4D03100380098470028EFDDF0BCBB4612
:10212000B246A946A046F8BD53465B6A984508D812
:102130005246926A4A4502D302204042EEE7984551
:10214000FAD101200021FFF7D3F9D2E7A82100201E
:1021500000400540B42100200A4A1368002B05D135
:102160000CE01A001B691032002B07D09842F8D1FE
:10217000002902D103691360016170470029FCD076
:102180001060FAE7A821002010B500F095FA10BD04
:10219000002903D0437D002B00D1037541757047A2
:1021A000F0B5CE46474680B583B06B460600DD1DD0
:1021B0002870FFF755F900231A4A12184B41802165
:1021C00009068B4202D30122174B524217490800DD
:1021D000884604F05DF9164B81461C68002C14D02B
:1021E000144F02E02469002C0FD02368002BF9D093
:1021F0003B68002B01D0A342F4D12000012229002A
:10220000FFF79EFE2469002CEFD14B46002B05D131
:10221000300003B0C0BCB946B046F0BD404604F043
:102220000FF9F5E740420F00FFFFFF7FA8150020E0
:10223000A8210020B421002070B5040003F060FC48
:1022400001230100050001222000FFF7C3FE084B17
:102250001C68002C06D06368002B05D098472469C1
:10226000002CF8D1280070BD2469002CF3D1F9E7C7
:10227000A82100207047C0460022014B1A70704709
:10228000DE3100204B790020FF2B0BD18B79002B06
:1022900008D1CB79012B05D1082A03D9024B8A78C2
:1022A00009301A707047C046DE31002001207047A7
:1022B00010B5012901D0012010BD134953791079BF
:1022C00009781B02034300209942F5D15378012B72
:1022D00008D0022BF0D1002064220021FFF78CFAF5
:1022E0000120E9E7D37891781B021943DB0507D574
:1022F0004A0A100001231A407E331940FFF704FBFD
:1023000001204A0A4042F5E7DE31002000487047CC
:102310002467001070B5050014000120012909D1BF
:1023200053780020012B05D1637912791B021343E6
:10233000072B00D070BD21002800024A9F3301F016
:1023400065FAF7E77C6600100123037000487047C8
:102350005C6600104B780A781B0213438A7810B52C
:1023600012041A43CB781B0613439622D2009342E1
:1023700000D010BD0022012011004042FFF7C4FA36
:10238000024B1860024B19607047C046482100207C
:102390004C21002010B5024B1878FEF743FA10BD0F
:1023A000DF310020154B70B51A68002A22D0EFF3F8
:1023B000108172B610680028FCD0BFF35F8F002038
:1023C0000F4A596010701B68BFF35F8F186081F36C
:1023D0001088002400250B4E3078FEF717FA0028ED
:1023E00004D1002400252900200070BD3078FEF7BC
:1023F00019FAF8E7FA240025A400ECE7E02500200C
:10240000E0310020DF31002070B5040000200E0014
:1024100001F01CFB002836D0002001F02DFB002825
:1024200031D0FFF71DF80023184A12184B418021C4
:1024300009068B4216D2164D280004F029F8002810
:1024400021D0002001F002FB00280FD10120002143
:10245000404200F00BFD03246442280003F0F0FF2B
:10246000200070BD01220B4B5242E4E7002001F036
:1024700003FB0028EAD021003200002001F006FB17
:10248000041EEAD1E7E703246442E9E740420F0073
:10249000C0310020FFFFFF7F10B5FEF7E1FF0023F2
:1024A0000E4A12184B41802109068B4202D30122A9
:1024B0000B4B52420B4C200003F0EAFF00280CD0DB
:1024C00001200021404200F0D1FC002001F028FB57
:1024D0000028F5D1200003F0B3FF10BD40420F00EB
:1024E000FFFFFF7FC0310020F8B5DE46574680B5BC
:1024F00005000C00FEF7B4FF0023374A12184B41C9
:10250000802109068B4202D30122344B52423449C6
:1025100008008A4603F0BCFF002803D1C0BCBB46BC
:10252000B246F8BD002001F091FA00284AD00026FA
:10253000002C43DD2B4B9B4614E0A919002001F031
:1025400029FB070001200021404200F08FFC002001
:1025500001F0E6FAFEF784FF224BF6191860596085
:10256000B4422BDD002001F035FBA71B0200B8426E
:1025700000DD3A00002AE0D101200021404200F0B5
:1025800075FC002001F0CCFA002001F05FFA002871
:1025900014D0002001F01EFB0028E1D1FEF760FFFF
:1025A0005B460F001A685B68002184460E481218CB
:1025B0004B419F4202D8D3D19445D1D9504603F024
:1025C0003FFFABE700200021064B186059605046E2
:1025D00003F036FFA2E7C04640420F00FFFFFF7F37
:1025E000C03100203017002020A1070030B52B4C4F
:1025F00085B00021200003F03BFF00281CD1284BB0
:102600001A68002A16D0EFF3108172B610680028FD
:10261000FCD0BFF35F8F01242248596002781B6809
:10262000D2B20470BFF35F8F0020186081F310886E
:10263000002A17D005B030BD01200021404200F033
:1026400015FC002001F018FA0500200003F0F8FE48
:10265000002DEFD0144B1B68002BEBD0134A1068F1
:102660009847E7E7FEF7E4FC0400FEF7F9FEFA22DC
:102670000023920012184B41802109068B4202D39D
:1026800001220B4B52420121029100210191094983
:1026900020000091FEF7D0FCCCE7C046C0310020FE
:1026A000E0250020E0310020482100204C210020BE
:1026B000FFFFFF7FA5230010D02310B51B0684B0B9
:1026C0001C68FEF7B5FCFEF7B3FDA04202D0002067
:1026D00004B010BD2A4B002100201B7801F074FDCE
:1026E00028480368002B47D00120FEF729FAFF2372
:1026F000254C264920701840FEF7AEF820780121BD
:10270000FEF772F80520FEF795F8002826D108227A
:1027100000211F48FFF774FBFEF78AFC0400FEF758
:102720009FFEFA220023920012184B4180210906D5
:102730008B4202D30122174B524201210291002108
:102740000191154920000091FEF776FC0028BEDBC0
:1027500012480121FFF700FD0120B9E70120FEF733
:1027600011F80B4B01001800FEF754FA0022052067
:102770000B49FEF79BF8EBE7FEF730FAB4E7C046EB
:1027800074690010C0310020DF310020ED250010F9
:10279000E0250020FFFFFF7FA52300103010002060
:1027A00095230010004870470068001000487047EB
:1027B000AC67001010B5040017480378002B20D038
:1027C000002C06D1154B16484380063BFF3B038087
:1027D00010BD052C19D8134BA400E0581249012351
:1027E000013804E001330A800231142B0FD0C25C9F
:1027F000002AF7D1C022DBB25B00920008481343E5
:10280000E5E7112100F01AF8DAE70020E0E7CA2333
:1028100003489B00DBE7C046C831002009040000E4
:1028200080210020946700108221002010B502480A
:1028300000F0D8F810BDC046B031002030B54B1EB6
:10284000012900D1A7E0664A11780D092C00303427
:102850009F2900D9A2E00470012B00D1BEE00F2116
:10286000147821400C003034092900D998E04470D4
:10287000022B00D1B2E054782509290030319F2C79
:1028800000D990E08170032B00D1A7E00F212140F7
:102890000C003034092900D987E0C470042B00D122
:1028A0009CE094782509290030319F2C00D97FE0E5
:1028B0000171052B00D191E00F2121400C00303433
:1028C000092900D976E04471062B00D186E0D4783E
:1028D0002509290030319F2C00D96EE08171072B2A
:1028E00000D17BE00F2121400C003034092966D84B
:1028F000C471082B00D171E0147925092900303109
:102900009F2C5FD80172092B68D00F2121400C0049
:102910003034092958D844720A2B5FD054792509DC
:10292000290030319F2C52D881720B2B56D00F21A9
:1029300021400C00303409294BD8C4720C2B4DD0E7
:1029400094792509290030319F2C00D90731017372
:102950000D2B43D00F2121400C003034092901D91F
:1029600037310C0044730E2B38D0D1790C0922007A
:1029700030329F2900D9073282730F2B2ED00F22BD
:102980000A4011003731092A01D830321100C173D1
:10299000102B23D010300023037030BD07345AE7CA
:1029A00037310C0063E707316CE737310C0074E70F
:1029B00007317DE737310C0085E707318EE7373186
:1029C0000C0095E707319DE737310C00A3E707318D
:1029D000AAE737310C00C4720C2BB1D1C018DAE76A
:1029E000B031002030B5002589B004000922002153
:1029F00001A80095FFF704FA0922002105A8049513
:102A0000FFF7FEF94B236A466846137004A90D22AE
:102A100003F00EFD1521082220006944FFF7F6F9A6
:102A200009B030BDF8B500F043F90C23194DFF2271
:102A3000AB6705201849FDF739FF184C40220021EB
:102A40002000FFF7DDF94027002301262121144A49
:102A500066702783A260136063545F3161844539D7
:102A60006354104A10496360E2602787A1620B60DB
:102A70006362E26203F0ECFC80239B052E64EB644E
:102A800090230A4A0120EA508022094B5202DA645C
:102A9000F8BDC04600001150D9040020BC21002020
:102AA00084001050000110508000105010D0010020
:102AB0000020115010B501210520FDF795FE10BD35
:102AC00010B500220021024800F012F910BDC046E6
:102AD000DC210020044B1970002904D080219023B0
:102AE000024A8902D1507047DA310020002011508B
:102AF0000B785B0602D14B78052B00D070478A78A3
:102B0000014B1A60FAE7C04600001150F0B5C64606
:102B1000C87800B58007830F1800012B60D08F782C
:102B20000A794B797F213940FC091B024E0013437F
:102B3000334D32195201AA18977001276740577018
:102B400000275B055B0DD7701383D076B846CA00AB
:102B5000012C32D02B4FBC468F016244BC46AC44A2
:102B60006746BA6047461760002932D0264AC90036
:102B700090466246414451603F223F3393430228CE
:102B800037D0224937190A687F01D3180B602049D2
:102B9000EF19FA608B422ED836197601AD19EB7E0B
:102BA0001C499B064A4013438022120613436A685D
:102BB0001360012080BCB846F0BD174FBC468F01A2
:102BC0006244BC46AC446746BA6247461760002977
:102BD00008D1002364012C196360104BE360E8E71F
:102BE0000020E7E70B4AC900904662464144516223
:102BF000C2E75B00C5E7FEF7B1FEFA68CCE7C04666
:102C0000BC2100208400105004001050C425002076
:102C1000FF0F1050000010508000105000011050A5
:102C200010B503F015FC10BD10B57F200C0020403E
:102C30004000E409110000191A00034B4001C018BC
:102C400000F056F8012010BDBC2100207F231800A1
:102C500010B50840CA090B4203D107497D3B9B1AB6
:102C60008B66400080188022044B40010021C01870
:102C7000120103F025FC10BD00201150BC210020E2
:102C80007F22130010B50B400A4200D110BDC909C4
:102C90005B005B1804485B01C01800230022034955
:102CA000C37003F00DFCF1E7BC210020FFF7FFFF2C
:102CB00080220A4B520410B51A60094B09491A6068
:102CC00010000B689843FBD1802200215201064876
:102CD000FFF796F80922054B5A6710BD00E0004047
:102CE00000F0004008C000400000105000001150EB
:102CF000002310B5C3820133828283760161040010
:102D000003F0D6FB002804D080219023074A8902D3
:102D1000D150200003F0DCFB002802D001232377F0
:102D200010BD200003F0BCFBFAE7C04600201150A4
:102D30007047C0467047C04600207047002070476B
:102D40007047C0467047C0467047C0467047C0468F
:102D5000024B5878431E9841C0B27047601C002057
:102D6000024B18784007C00F7047C046601C002017
:102D7000F0B5D6464F464646C0B5314B07009A4699
:102D80001B780E00FF2B01D0012044E0002941D028
:102D9000002154222B48FFF733F800222A4C2B4BFA
:102DA00020001A70FDF71AFF294B1C60294C2000E7
:102DB000143CFDF721FF200001F0FEFD264B274DBE
:102DC0001C60274B002B2BD02800FFF7BDFA254BAA
:102DD0002A7818602449002489462249002388461D
:102DE00010E043461B6862019B18002B12D05B6801
:102DF000002B0FD098472A780134E4B2511C2300ED
:102E0000A1420FDBA242ECD89B1A5B014B445B68EA
:102E1000002BEFD10020E0BCBA46B146A846F0BD79
:102E20002A78D7E75346310038001F70FFF7FAFDC4
:102E30000028EFD03800FFF73DFE0120EBE7C04649
:102E400064100020601C0020581C0020DB31002092
:102E5000B41C00205C100020B81C0020D9310020D8
:102E600049230010B01A002018690010F0B5DE46A2
:102E700057464E464546E0B5CE4B91B002931B787F
:102E8000FF2B00D138E1CC4BCC4E9B465F46CC4B60
:102E90000DAC0193CB4B009335686A69EFF3108159
:102EA00072B61368002BFCD0BFF35F8FA9612800B6
:102EB000210001F0BFFB6A69AB69BFF35F8F00219E
:102EC000116083F31088002800D115E16378082B86
:102ED000E2D89B00FB589F466368002BDCD0A068BB
:102EE0009847D9E77F222179B54D0A405300EB1866
:102EF0009846C809804440460123303005799D43F7
:102F00000571057903339D430571002A00D1FAE06C
:102F10004346AD4A1B7D1278934200D3E9E0AB4AA9
:102F20005B011568ED18002D00D1E5E0A36862791A
:102F30002078AD69A847AFE7A54A1378002B00D1E8
:102F4000DAE01378013BDBB213701378002BA3D1C6
:102F500001229B4D01212B78042013432B70342335
:102F6000EA5C8A43EA54EA5C8243EA540133EA5C4D
:102F70008A43EA54EA5C8243EA54237800209B4661
:102F800000F0A4FC602223791A40602A0DD0402A68
:102F900000D1CAE0DB06DB0E012B00D120E1022BC1
:102FA00000D1DCE0002B00D1CBE020780021FFF73E
:102FB0004DFE80212078FFF749FE6DE7804D2B788C
:102FC000DB0700D468E7FFF7C1FE65E7019BDB780C
:102FD000DB0700D460E76068FFF7ACFE5CE7784D84
:102FE0002B78DB0700D457E728780007C00FFFF7DE
:102FF000ABFE51E72378734999468B46724B734970
:1030000098468A4639001A7847460023B04600257C
:103010004E46894610E053461B686A019B18002BF8
:1030200000D176E0DB68300098473A780135EDB2A0
:10303000511C2B008D4244DCAA42ECD89B1A5B0148
:103040005B44EFE72378614999465F4B8A4698468F
:103050003100BB464E461A78002500234746894674
:103060000FE053461B686A019B18002B55D0DB68A4
:10307000300098473A780135EDB2511C2B008D4253
:1030800007DC9542EDD39B1A009A5B01944663449A
:10309000EDE7019D542200212800FEF7B1FE102229
:1030A000FF214C48FEF7ACFE28002022FF211430FF
:1030B0004E465F46FEF7A4FE00F0FEFBFFF742FE21
:1030C000EAE63F4D542200212800FEF799FE102227
:1030D000FF21281DFEF794FE28002022FF21143036
:1030E00046464F46FEF78CFE00F0E6FB2379AB70B8
:1030F000D2E6501C984213DA11B0F0BCBB46B2467F
:10310000A946A046F0BDA3686279207800F0F2FBE2
:10311000C2E646464F462A4DE6E74E465F46CBE7B7
:10312000284D9B1A5B015D1900E72B4800F0CEFB90
:10313000012158460EAAFFF7EDF8002800D0ABE6B3
:1031400033E7202A00D156E1002A00D02DE7637929
:10315000092B00D929E7214A9B00D3589F467023A9
:10316000217A0B4200D020E7C80982460F330B407A
:103170005B0098461448EB1853441B7D0078994631
:10318000834261D3431C4B4500DA4EE14B461B1A88
:103190005B0199460B488144002A00D14AE14B4625
:1031A000586900F093FB4B46012158465B690EAA13
:1031B0009847C2E76410002070680010B81C002017
:1031C000601C002018690010D9310020B01A0020BE
:1031D000DB310020641C00201523001094680010CF
:1031E000237A0F2B00D9E0E6D74AEB181B79157824
:1031F000AB4236D3691C994200DAD6E65D1BD34B4D
:103200006D01ED18686900F061FB012158466B699A
:103210000EAA9847002800D03EE6602215002379C8
:103220001D401A4200D0C0E663790A3B012B00D949
:10323000BBE600F04BFB63790A2B00D18EE15846C8
:103240000EA900F0CDFA27E6C1485B01006881466F
:103250009944002A00D1EDE04B46002B00D1A4E6B2
:103260009DE7BB4A5B011568ED18002DCAD19CE6AD
:10327000A37999466B789945E1D06B78002B00D003
:1032800033E14B466B70002B00D12BE148460138EF
:10329000C0B2FFF78BFA002800D17EE14378079394
:1032A000022B00D079E10122C179B1468B1149117D
:1032B00013400A40302112015B0113432A78A846CB
:1032C0008A4313432B7009239A4682445646BA46D2
:1032D000C37882781B021343C31805939A4B049357
:1032E0009A4B08939A4B09939A4B0A93059BB342C6
:1032F00000D855E1737801220B2B03D13378F27893
:10330000F6187378042B00D044E1059B00279B1B23
:103310009BB20693049B0B921D78002303931BE042
:10332000099A7B011568ED18002D00D132E13100BA
:1033300058462B69069A98478446082803D9069A66
:10334000824200D313E1049B01371D78FFB26B1C4E
:1033500003979F4200DD1DE1AF42E1D3039B5D1B5C
:10336000089B6D019C466544E1E76B780CAA02322C
:103370001370584601230EA900F048FA8CE5E38843
:103380001A0AD8B20F2A00D90FE673499300CB5816
:103390009F460EA800F0A0FA5846A179FFF790FBCF
:1033A00002222B7813432B7076E5E388012B00D0A3
:1033B000FBE508222B78584693430EA92B7000F0AA
:1033C0000FFA69E5022029780CAB9A1C8B06890854
:1033D000DB0F01400B431380584602230EA900F077
:1033E00015FA59E5E388012B00D0DEE508222B7899
:1033F00013432B7023E7237A0F2B00D9D5E5EB1865
:103400001D79514B1B789D4228D2514B6D011B6891
:103410005D19002D00D1C8E5686900F057FA012157
:1034200058466B690EAA984787E6002A00D0BCE58B
:103430000023994662790220130003928343012BF3
:1034400015D0002A00D0B0E52B004344534430335C
:103450001B790CAA9B07DB0F0232BCE75A1CAA425D
:1034600000DAA2E5ED1A394B6D01ED18D4E7E388D7
:10347000002B12D1029B1878039B012B23D0FFF75E
:10348000E5FB43460221EB18534430331A790A43D3
:1034900001211A711A790A431A714B46002B00D187
:1034A000FAE4586900F012FA4B4601215B690EAA52
:1034B00058469847002000F009FA3523EB5CDB07FB
:1034C00000D5E9E4BBE6FFF7DBFB43460221EB183E
:1034D000534430331A798A431A711A7903998A430B
:1034E0001A71DAE7FFF72EFCA9E600215846FFF72C
:1034F000F1FA5846FFF794FBAB7814490393049113
:10350000114B134998461A780591002329001D0094
:103510008A4610E0059B6A011B689B18002B58D057
:10352000DB685846984743461A780135EDB2511C7E
:103530002B008D4239DC9542ECD39B1A049A5B0137
:1035400094466344ECE7C046D93100201869001066
:10355000B01A0020741C0020BC6800100CAB9A1C30
:10356000584601230EA9157000F050F994E40B9A07
:10357000012A4FD0002A3CD00023B07804E0013368
:10358000DBB20F71934234D21918C9B241440D799C
:10359000FF2DF4D04E464546574600236B7004E598
:1035A0004E465746FFF7CCFB49E6554654220021CC
:1035B0002800FEF725FC1022FF21281DFEF720FC25
:1035C00028002022FF211430FEF71AFC039BAB7069
:1035D00057E65546FAE7FEF799FE021E00D1E4E4ED
:1035E000D37891781B020B4358460EA900F00EF9D0
:1035F000A3E565463B002A0031000A9800F08AFEE8
:10360000AC46049B039A1B7866440133934200DB6B
:103610006CE6BFE7164B29699942ADD1079AABE733
:10362000FFF78AFB021E00D1BFE4584613780EA9AB
:1036300000F0ECF881E52189FFF7BCF8021EF4D117
:10364000B3E4022A0FD0FFF779FB021EC8D1ACE425
:10365000FFF7A8F8021E00D1A7E4122358460EA9CE
:1036600000F0D4F869E5FFF7A1F8021EB8D19CE498
:10367000D53C0010F8B557464E46DE4645460C0090
:10368000E0B516001F00002A3CD01F4B00259A46CB
:10369000702399461D4B9B4617E05B4620009978A6
:1036A00000F0FAFD00281FD021004046FFF72EFA57
:1036B000002819D0A378DA09012A1CD00A9A01350A
:1036C00013702378E418B5421CDA6378052B0BD10C
:1036D000E3789B079B0FBB4206D153464A461B78B3
:1036E0009846A3781A42D8D00020F0BCBB46B24618
:1036F000A946A046F8BD0B9A013513702378E4184B
:10370000B542E2DB0120F0E764100020601C0020DD
:10371000702270B5094B0C001D788B781A4201D0CD
:10372000002070BD064B2000997800F0B5FD002800
:10373000F6D021002800FFF7E9F9F2E76410002035
:10374000601C00200B007F2010B51840DB093433CB
:103750004000044AC018044B1168C01800F058FD1E
:1037600010BDC046B41C0020601C00200B007F2050
:1037700010B51840DB0934334000044AC018044B2C
:103780001168C01800F06CFD10BDC046B41C0020CC
:10379000601C002070B57F240F480C4064000419A1
:1037A000CD09641930342079C00701D5002070BDDF
:1037B000012625790948354300782571FFF734FA49
:1037C0000028F4D101222379934323712379033212
:1037D00093432371EAE7C046601C00206410002078
:1037E00070B5094C0600082220000D00FEF70EFB04
:1037F00000238021E360A3602B78300099430022EE
:103800000023FFF7C7FF70BD401C0020F8B5CE466F
:1038100047469046264E80B58146082230000D006E
:103820001F00FEF7F3FA4346B3600023F381EC79FF
:10383000AB7924021C43231CBC4200D93B1C9FB221
:10384000B381002C0ED0002F18D04346002B2CD073
:103850003B1C402F1BD89FB233787F2B1CD80021F4
:10386000144A0FE080212B78002299434846002318
:10387000FFF790FFC0BCB946B046F8BD7F230022D9
:10388000317899433B004846FFF784FFF2E7402335
:103890009FB233787F2BE2D9064C3A004146200094
:1038A000FEF7B4FA80212200ECE70020E2E7C046F0
:1038B000401C0020001C002010B5142200210248EA
:1038C000FEF79EFA10BDC046401C0020014B186157
:1038D0007047C046401C002010B5054C010008226E
:1038E0002000FEF793FA0023A360E36010BDC046FA
:1038F000401C002070B5384C1D0023780600DA0902
:10390000C9098A4210D00020002D00D070BD2100CE
:103910003000FFF7EDF82369002B03D022000321CC
:10392000300098470120F1E7A0687F2B05D80028D8
:1039300034D02A002949FEF769FAE289A1685219B0
:10394000E38892B24919E281A160934214D03F2DDD
:1039500012D9A389981A051C80B240282AD8207849
:10396000ADB27F2828D800219A4232D01B4A2B00C2
:103970003000FFF70FFFC9E72369002B05D02200B5
:1039800002213000984700280AD0802123780022A5
:10399000994330000023FFF7FDFEB7E70020B5E7AD
:1039A00000213000FFF752F930008021FFF74EF977
:1039B0000120ABE74025D2E79A4207D0074C2A0006
:1039C0002000FEF723FA80212200D0E78021002288
:1039D000CDE70022CBE7C046401C0020001C0020A1
:1039E00070B50500FFF7B4F9002800D170BDFFF7EE
:1039F000B7F90028FAD1C8236B43124CE618F178C6
:103A00000029F3D010331C19200000F0FDFD3F28E1
:103A1000ECD90020F178FFF795FE0028E6D02000D1
:103A200000F0F2FD3F2808D9074BEA01D218F178DF
:103A300040230020FFF7AEFED8E7F1780020FFF723
:103A400095FED3E7381B0020B41A002010B50400FF
:103A5000FFF77EF9002801D1002010BDFFF780F9A3
:103A60000028F9D1C8226243024B01309B181B7910
:103A70001840F2E7381B0020C82310B54343024822
:103A8000181800F0A3FD10BD481B0020F0B5C82495
:103A9000C646802344431F4F1034050000B53C192F
:103AA0005B029A4200D31C4A200092B200F010FE42
:103AB0008046FFF74DF9002803D1404680BCB84648
:103AC000F0BDFFF74DF90028F7D1C8266E43BE19A7
:103AD000F378002BF1D0200000F096FD3F28ECD9C0
:103AE0000020F178FFF72EFE0028E6D0200000F03D
:103AF0008BFD3F2808D9094BEA01D218F178402301
:103B00000020FFF747FED8E7F1780020FFF72EFEF0
:103B1000D3E7C046381B0020FFFF0000B41A002086
:103B2000F8B50600FFF714F9002801D10020F8BD10
:103B3000FFF716F90028F9D1C82474432500134F64
:103B40002435ED19280000F041FD0028EED03F1982
:103B50000020B978FFF7F6FD0028E7D00C4BF40100
:103B6000E41821002800402200F0B2FDB978051EBB
:103B700008D0030022000020FFF70CFE0028D5D05B
:103B80002800D4E70020FFF7F1FDCFE7381B002025
:103B9000F41A002070B5C82444430C4B0500E41807
:103BA00080235B029A4200D3094A200092B200F0BF
:103BB00047FE0600200000F009FD3F2801D8300034
:103BC00070BD2800FFF7ACFFF9E7C0465C1B002082
:103BD000FFFF0000C82310B543430248181800F047
:103BE00013FD10BD5C1B0020F0B50025184C83B000
:103BF000C82200212000FEF703F9164B21001D709A
:103C0000FF236371E1235B02A360200008234022AD
:103C1000A37338310095073B103000F0A1FC27005A
:103C20000123210020002600402278310093B8377C
:103C3000243000F095FCC0363800FCF7CFFF300090
:103C4000FCF7CCFFE56127622663656303B0F0BD36
:103C5000381B0020341B00200A4B196B1A6A0029FC
:103C600009D0002A0CD000221A621A63DA610022FD
:103C70005A6301207047002AFBD0D9611962F8E726
:103C80001A63F4E7381B002070B50F4C05220021A1
:103C90002000FEF7B5F80D4D2B78DA0707D50C4C50
:103CA0009B070CD50121200000F0A6FE70BD20006E
:103CB000103000F081FE2B78054C9B07F2D42000D9
:103CC00000F07AFEEEE7C046381B0020341B0020CF
:103CD0005C1B0020F0B54B79060083B0022B02D1AB
:103CE0008B79022B03D00025280003B0F0BD214FB3
:103CF000BB78002BF7D18B7809253B700C780C1919
:103D00006378242B0BD1082A02D80FE0AA420DD3E6
:103D10002378E4185D196378ADB2242BF6D0052B17
:103D200008D0042B02D163790A2B11D00020FFF7B1
:103D300057FED9E721003000FFF7EAFC0028D2D077
:103D4000A3787B7023785D19E4186378ADB2E8E757
:103D5000094B27780193013300930222022330009C
:103D6000E119FFF787FC0028BDD00E35ED19ADB283
:103D7000DCE7C046381B00203A1B0020F8B5602362
:103D800014001278050013400020202B07D1304A80
:103D90006379277916781B023B439E4200D0F8BD19
:103DA0006378222B28D007D8202B17D0212BF6D1CF
:103DB000012944D00120F2E7232BF0D1012938D08A
:103DC0000329F7D1234B002BF4D0E178A378090223
:103DD0000020194300E000BF0120E0E701292ED0B8
:103DE0000329E7D11C4B002BE4D00832002011003E
:103DF000FEF7B0FA0120D2E701291AD00329D9D160
:103E000001252E00A378E478023924021C431471A2
:103E1000264024321000714000F0EEFD0F4B002BC5
:103E2000C8D06208002031002A4000E000BF012015
:103E3000B5E721002800FFF7D3FC0120AFE70723F7
:103E400021002800064AFFF7E1FC0120A7E7C04651
:103E5000381B002000000000552300100000000067
:103E6000401B0020F0B54F464646D646364DC0B5FD
:103E7000EA781F0080460C00AB788A423BD08B4228
:103E800010D00020E0BCBA46B146A846F0BD2F4B8A
:103E9000002B04D02E4800F0AFFB002851D00020AA
:103EA000FFF79EFDAB78A34201D00120EAE7294B42
:103EB000002B02D0002000E000BF0020FFF730FE02
:103EC0000028F2D1244C200000F080FB0028ECD127
:103ED000002FEAD0BF06E8D1243C4046A178FFF786
:103EE00031FC0028E1D0002300224046A178FFF7F2
:103EF00051FC0120C6E710239A46184EAA4431000F
:103F00005046BAB200F09CFC154B002BBFD06B7929
:103F1000FF2BBCD0002FBAD0F219914603E0013636
:103F2000B145B4D06B7932789A42F8D1504600F05E
:103F300063FB0028F3D15346103B597900E000BFE2
:103F4000EDE700E000BFAAE7381B002000000000FA
:103F5000481B0020000000005C1B0020B41A002059
:103F6000000000009322F0B5134C85B00021200022
:103F70009200FDF745FF23002000802640270F4DCB
:103F80004D337600FF332930029500930022002341
:103F9000002103970196FF3000F0D6F94035201D2F
:103FA00028340023012200210397029501960094F2
:103FB00000F0CAF905B0F0BDFC1D00207C1D0020FA
:103FC00010B5054C200000F0F5F920002538FF3829
:103FD00000F0F0F9012010BD241F002070B5084C3E
:103FE000002520003130FF30257000F0E5FC200076
:103FF0000C3000F0E1FC2A23FF33E554657170BDFD
:10400000FC1D0020F8B557464546DE464E46E0B555
:104010004B7980460F00FF2B27D1424B0C789946F5
:104020002A234946FF33CB5C002B1ED14E79002E4C
:104030001BD1BB783C190B703B79002B12D0982315
:104040005B004B449A460C234B449B46A51863786F
:10405000052B05D110E02378E4186378052B0BD0ED
:10406000AC42F8D3E01B80B200E00020F0BCBB46BD
:10407000B246A946A046F8BDA542F3D92100404664
:10408000FFF746FB0028F0D0A3780136F6B2DB0933
:10409000012B29D0504600F08FFC2A234946A278F4
:1040A000FF33CA54637922791B0213431E4A5B050E
:1040B00094465B0D942163445A4253414A46022080
:1040C0004900525C5B00824313434A4653545146B5
:1040D0004046083900F0D6F90028C6D02378E41805
:1040E0003B79B342B3D8BDE7584600F065FC5A4669
:1040F000A3780C3A5371637921791B020B430A4967
:104100005B058C465B0D634459424B41022011799B
:104110005B0081430B43594600200839137100F0BE
:104120007FF9DBE7FC1D002000FEFFFF70B50500F6
:104130002A201F4CFF30205C1E006379884203D088
:1041400000208B421DD070BD9A235B00E35A002BE8
:104150000DD1184B002B04D000201749B2B200E05B
:1041600000BF2800154900F08DF90120EBE7200081
:10417000962331305B00E158B2B2FF3000F060FBB3
:10418000E7E70F4B002B04D031040020090C00E0BE
:1041900000BF0C4C2800210000F042F90028E4D1B7
:1041A00032002100280000F007F90120CBE7C046CB
:1041B000FC1D0020000000007C1D0020241F0020AA
:1041C00000000000001E002000B5030083B000299D
:1041D00010D00020012B07D80A78002A04D00B4801
:1041E000C2540120012A01D003B000BD1800FEF71F
:1041F000BFFDF9E7012301A900200B80FEF7B8FD00
:104200000028F1D00122014B1A70EDE7541C002068
:10421000037870B5DB0704000E00DD0F002B17D10B
:1042200003785B0701D5280070BD012130004942A9
:1042300002F026F92378DB07DD0F002B0AD1237863
:104240005B0708D40422237801251343237002E07E
:104250000025E8E70025300002F0F2F8E3E7C04669
:1042600070B50C00012106004942200002F008F957
:1042700033785B07DD0F002B04DB200002F0E0F851
:10428000280070BD3378DB0704D4042233789343CD
:104290003370F2E70025F0E7437902791B021343FC
:1042A0005B055A0DC3789B079B0F022B05D0032B90
:1042B00015D00020012B08D0704702291ED0002005
:1042C000402393424041C0B2F6E702394B42594184
:1042D0000D4B9C46614491424041C0B2ECE702392B
:1042E0004B1E9941094B494219408023DB009C46F3
:1042F0000020614491424041C0B2DDE7044BD01838
:1043000043425841C0B2D7E7FF03000040FCFFFF23
:1043100000FEFFFF8A1870B5914207D27F264C78C5
:10432000052C04D00C7809198A42F8D870BD3400E5
:104330008D782C4064000419ED0963550C78091937
:104340008A42ECD8F2E7C046F0B5C64600B582B066
:10435000150008AA40CA040017880BAA1288012079
:1043600090460A00217802408143200011432170C9
:104370003A00009331000123083000F0F1F8002EDC
:1043800001D0002F08D10A9B01206360434663805F
:1043900002B080BCB846F0BD26001C363000FCF7E9
:1043A0001DFC0023002D01D0330000266361A661AF
:1043B000E9E7C04601207047F8B502240B780700F2
:1043C0001C4063425C41144B64421C40134B080088
:1043D0009C4608300D001600644400F0F7F80028F1
:1043E00007D1002E05D0344203D101242B781C4282
:1043F00001D00020F8BD38006978FFF7A3F9002844
:10440000F7D02B781C42F4D10023002238006978C1
:10441000FFF7C0F9EEE7C04640FEFFFFFF010000D6
:10442000F8B50D000835060028000C0000F0CEF8A5
:10443000002803D0012723781F4201D00020F8BDB7
:1044400030006178FFF77EF90028F7D028006288F5
:10445000616800F03DF92378051E0BD01F42EDD1B5
:104460000300626830006178FFF794F90028E5D016
:104470002800E4E71F42E1D130006178FFF776F9C8
:10448000DCE7C046F8B5CE46474680B58A890500C8
:104490000C000B78002A07D101261E423FD00020D5
:1044A000C0BCB946B046F8BD9B0734D5FE23802674
:1044B0001B029946B60027000837380000F0A4F820
:1044C0008642ECD80122237890461A42E7D1280090
:1044D0006178FFF737F90028E1D0380000F094F850
:1044E000864231D84146237862881942D7D14B465B
:1044F00003401E1C934200D9161CB6B200226178FC
:10450000002E00D0626833002800FFF743F900282E
:10451000C5D03000C4E7114B40269946CBE7497817
:10452000FFF710F90028BAD0227863881642B6D176
:1045300000226178002B00D062682800FFF72AF97A
:104540000028ACD06088ABE7424623781A42A6D157
:1045500028006178FFF70AF9A1E7C046C0FF000014
:10456000F0B5C64600B5040006A805788020884648
:1045700017001E000002824226D8E068002803D0FF
:104580000121494201F07CFF2069002803D001216C
:10459000494201F075FF4346236073045B0CED0351
:1045A0001D430023E0686381A780E5802381002804
:1045B00001D001F045FF2069002801D001F040FF43
:1045C000012080BCB846F0BD0020FAE710B5048990
:1045D00041898288A3B288B28C4207D31B1A9BB24E
:1045E000101C9A4200D9181C80B210BD5100091A43
:1045F0005B189BB2F4E7C04603894089181A43420E
:104600005841C0B27047C04610B5048941898288BC
:10461000A3B288B28C4207D31B1A9BB200209A42E5
:1046200001D9D21A90B210BD5100091A5B189BB281
:10463000F4E7C04670B5040000690E00002803D0FE
:104640000121494201F01CFF25896089A288A9B295
:1046500083B285422BD3CD1AADB2002D2DD0AA4204
:1046600008D291422FD3891A8BB263819A4203D820
:104670009B1A9BB29A42FBD9E28821685204520CE1
:1046800053433000C918FDF7C1FB63890125591C4C
:1046900089B2A2888B4212D95200891A89B2206944
:1046A0006181002801D001F0CBFE280070BD5500CB
:1046B000ED1A4D19ADB2002DD1D1618989B25200E8
:1046C0009142ECDBE9E789188BB26381CEE7C04603
:1046D000F0B546464F46D646C0B506000069894645
:1046E0009046002803D00121494201F0C9FE3189DA
:1046F0007289B5888BB294B2914254D31F1BBFB25A
:10470000002F4AD0BD4205D2AB4251D25B199CB2B8
:104710002F0074814346B8453DD89FB2A54203D8C7
:10472000641BA4B2A542FBD9F28831685204520C32
:10473000904662432B1B9BB2891842469F4225D963
:1047400053439BB21A0048469A46FDF75FFB434627
:1047500048467D1B64195C4331685044A2B2FDF7A2
:1047600055FB7189B588CB199BB26A00994216D95D
:104770009B1A9BB230697381002801D001F060FE62
:104780003800E0BCBA46B146A846F0BD48467A4378
:10479000FDF73CFBE5E73B1CBFE773899BB26A0072
:1047A0009342E7DBE4E76F003F1BDF19BFB2A7E7E7
:1047B0005B1B9CB2ACE7C046F8B50400C0680E00B5
:1047C000002803D00121494201F05AFE25892089A1
:1047D0006189A288ADB283B28FB2884228D3DB1B35
:1047E0009BB29A4209D8E779FF0906D1E068002810
:1047F00001D001F025FE3800F8BD2B00954203D30F
:104800009B1A9BB29342FBD2E28820685204520C5E
:1048100053433100C018FDF7F9FAA2886B1C9BB214
:1048200052009D4209D99B1A9BB201272381DDE7E3
:104830005100C91B5B189BB2D3E79342F5DBF2E74B
:10484000F0B557464546DE464E46E0B51400050035
:104850000F0083B0002A75D0C068002803D0012162
:10486000494201F00DFE2E89E9796A89AB88B6B21A
:1048700092B2C90945D1964200D36DE059008A1A17
:10488000B21892B2002189469A4234D29A1A111C67
:1048900092B2A24200D9211C8AB29146EA885204FF
:1048A000520C90464A46B21892B292464A46D21AE2
:1048B00092B2934634009E4203D3E41AA4B29C42BF
:1048C000FBD24246624328681B1B9BB280184246BB
:1048D0004B4554D34B4639005A43FDF797FAAB8802
:1048E0005B00564501D89A4503DB5246D31A9BB26A
:1048F0009A4653462B81E868002825D001F0A0FD98
:1049000022E0E9884904490C88469C4227D2964215
:1049100047D3B11A89B28C465800E11A89B28B4646
:1049200061460919814208DBD11889B20E1BB6B263
:104930008A46B2423BD9361AB6B2A21992B2924610
:10494000A146B7E700239946484603B0F0BCBB46F2
:10495000B246A946A046F0BDB21A92B292E7002133
:104960008946002BC7D04146E41A4C431600D118A3
:10497000002289B28A46994693463F199AE75343E3
:104980009BB21A0039005C440193FDF73FFA41469F
:1049900022004A43019B286892B2F918FDF736FAC3
:1049A0009DE75800811A711889B28C46B5E7A14677
:1049B000B04200DD7EE7BEE710B50400C068002805
:1049C00003D00121494201F05BFD2069002803D09A
:1049D0000121494201F054FD0023E06863812381F5
:1049E000002801D001F02CFD2069002801D001F041
:1049F00027FD012010BDC04670B50400C0680D0041
:104A0000002803D00121494201F03AFD2069002825
:104A100003D00121494201F033FD7F21E379ED010B
:104A20001940E0682943E171002801D001F008FD38
:104A30002069002801D001F003FD012070BDC046AF
:104A400001230121084A1360084A1360084A08003C
:104A500013689843FBD1074A11608021490013680D
:104A60000B42FCD07047C04600E0004000F0004020
:104A700008C0004000C00440F0B54E464546DE4642
:104A80005746E0B50D000B35060085B0162D27D82A
:104A9000102900D9DAE000F0D1FA102518230221FC
:104AA000C74FFB181A005C68083A944200D146E1EF
:104AB00003226368A1689343E268CA6091600121A0
:104AC000E3185A6830000A435A6000F0BFFA200029
:104AD000083005B0F0BCBB46B246A946A046F0BDC2
:104AE00007239D4300D5B1E0A94200D9AEE000F014
:104AF000A5FAFC235B009D4200D29AE1690A00D12D
:104B0000A8E0042900D94FE138239846A909884430
:104B10003931CB00082252429446A94FFB189C44DD
:104B20006346DC68A44514D0032399460B00614614
:104B30009C4607E0E068002A00DBFAE0814200D1F1
:104B4000FBE004004A46636893435A1B0F2AF1DDD9
:104B500041463A003C690832944200D1D8E0032033
:104B600063688343581B0F2800DD66E13A617A6170
:104B70000028A4DA7A68904680229200934200D3FB
:104B8000E3E0DA0858090123834040461843804691
:104B9000D300DB199A687860E360A2609C60D460FF
:104BA00001208B10984040455CD8434603420AD10F
:104BB00003239943434640000431034203D140009C
:104BC00004310342FBD00323B3469C460E00B84693
:104BD0000190F00040440100B246CB680BE064460F
:104BE0005A681F00A243DB68541B0F2C00DDF3E062
:104BF000002C00DB0DE19942F1D101239946CA4412
:104C0000534608319B07E8D1032205E003680838C2
:104C1000013E834200D00AE23242F7D14346019A74
:104C20005B68934342465360019A520001929A4254
:104C300016D8002A06D113E004229146019ACA44EC
:104C4000520001921342F7D05646C2E70C230020CF
:104C500033603EE780233F22402190469B0059E786
:104C60005E4647460322BC68636893439946AB425D
:104C700002D35B1B0F2B4EDC23004B440293514BA2
:104C800008201B6810335B19019300F02BFF4E497D
:104C900003900B688B46013306D08446019B424249
:104CA000013B6344134001933000019900F0E6FE9C
:104CB00003008046013300D1DDE0029B834200D92E
:104CC000D7E0019A414B944619689A466144039A89
:104CD0001960029B0800013A434500D0EAE04346D0
:104CE000134200D0E6E0BB68984663464B441A0086
:104CF00001231A4343465A60354B1868884200D254
:104D00001960344B1868884200D219604446B4E0F8
:104D10007B68984644E70122290013431143651933
:104D200061603000BD606B6000F090F920000830D9
:104D3000CFE6A268D0608260C1E6614609E7DC6820
:104D40000231A34200D104E7B2E65A0A042A00D88D
:104D500088E0142A00D90FE110005B3082465C32F3
:104D6000D200082040428446BA18944462469268B1
:104D70000B308146944500D1E5E00800A24661462B
:104D8000844602E09268914204D04C465068A043A9
:104D90009842F7D8D368614654469C466346A26061
:104DA000E3609C60D460FBE6142973D9542900D9D0
:104DB000EBE06E239846290B88446F31CB00A9E6BF
:104DC0007010002070190020681000204019002089
:104DD000681900206C190020BA460120514684460B
:104DE0004919054350464560856847466046EB6073
:104DF0005E469D60534639617961204308374860BB
:104E0000CF6030008F609C5000F020F95046083091
:104E10005FE6BA4601205E46524451680143516044
:104E2000BA683000D3609A6000F010F9380008309A
:104E30004FE62B00E908083332E661198846012164
:104E40008C460D434146656039617961CA608A606C
:104E5000624602434A60E050300000F0F7F820005C
:104E6000083036E69A091000393238308246D200CE
:104E700077E7BC4214D0BC68626803239A43531B93
:104E8000AA4202D30F2B00DD45E7300000F0DEF828
:104E900000201EE65B23984688445C31CB0039E64F
:104EA000644B9A461868019B9C46534660441860C0
:104EB000039B5A1E5B461B68013371D0434602991F
:104EC0005B1A51461B180B600723414640461940A8
:104ED0000291184240D00398013384465B1A01992D
:104EE000984441440191634411405B1A1A401100F7
:104EF0003000934600F0C2FD431C78D04346C01AF0
:104F000003005B440193534619680120594419601A
:104F10004346019ABB6002435A60BC4200D1EBE6B3
:104F20004B460F2B40D907220C3B9343626802404B
:104F300005201A436260E218506090600F2B4BD836
:104F400043465A68D8E653469810012383404046AA
:104F500018438046786021E7019B0399434413403E
:104F6000CB1A1A4011003000934600F087FD431C15
:104F7000C4D100239B46C6E7542A18D81A0B100048
:104F80006F326E308246D200EBE6AA235B00994274
:104F900018D8DD3B9846E90B88447831CB00B9E559
:104FA0005B46414619608FE7434658606DE7AA208B
:104FB0004000824226D8DA0B1000783277308246E1
:104FC000D200CEE61C4B994226D87C239846A90CE9
:104FD00088447D31CB009DE521003000083100F090
:104FE00017FE53461968BB6898465A6884E6019ACA
:104FF000029B94464246083B63449B1A019300235C
:105000009B4680E70C4882420CD89A0C10007D32F7
:105010007C308246D200A4E6FE237E227F21904689
:105020009B0077E5FE227E209200824699E6434669
:105030005B68F9E5401900205405000010B50248EE
:1050400000F04CFD10BDC0463819002010B50248D4
:1050500000F046FD10BDC04638190020F0B5574697
:105060004E46DE464546E0B50C000600170083B00C
:10507000002900D1ACE0FFF7E1FF08235B4299462D
:10508000A1444B465B68032219003D0091430B3558
:10509000CA468846162D67D81025AF4267D8A8455E
:1050A0006EDA4946C04841444A6800908068934699
:1050B000884200D1A0E0012084461000624690435F
:1050C00008184068104200D077E05A460320824317
:1050D0009346C3445D454EDD6046184212D14B46AF
:1050E00048461B68C31A03209B465B688343D2185B
:1050F00042440092954200DCCCE0434400939D4240
:1051000000DCCBE039003000FFF7B6FC071E00D111
:105110001EE14B4601225B68934302004B44083A70
:10512000934200D1E3E04246043A242A00D9E3E066
:1051300003002100132A09D92368036063684360D0
:105140001B2A00D9DCE00300083108330A681A6022
:105150004A685A608A689A603000210000F058FD61
:105160003000FFF773FF20E00432954395D50C2300
:105170000027336019E0D846CB688A68D3609A600C
:1051800043465F1B5346012250465B684044134030
:105190000F2F22D841460B4351464B6043681343BF
:1051A00043603000FFF752FF2700380003B0F0BC27
:1051B000BB46B246A946A046F0BD1A42A2D14B4614
:1051C0004A461B68D31A03229B465B68934394E7C5
:1051D0001100FFF751FC0700E7E751462B4349193F
:1051E000554617436B604F60436808311343436073
:1051F000300000F00DFDD4E703218A4394462900D6
:10520000C44410318C4500DB84E0DB0700D579E72E
:105210004B4648461B68C31A03209B465B68834382
:10522000D21842440192914200DD66E75B465A463D
:10523000DB6892685F46D3609A604246043A08375A
:10524000242A00D999E03B00132A0AD95946236839
:105250008B606368CB601B2A00D993E05B460834FF
:10526000103322681A6062685A60A2689A605B46CE
:1052700001225919009B30009960019B5B1B13436D
:105280004B605B465B6813405A462B435360FFF705
:10529000DDFE8AE7CB688A68D3609A605B465A462F
:1052A000DB6892685F46D3609A604246043A0837EA
:1052B000242A17D83B00132A09D9594623688B6042
:1052C0006368CB601B2A39D85B46083410332268E8
:1052D0001A6062685A60A2689A60009B3C00984617
:1052E000DA464DE72100380000F036FBF5E70322EF
:1052F0005B689343984443E7210000F02DFB2BE7C4
:10530000A3688360E368C360242A26D003001031B9
:1053100010331BE74B465919009B012299606346E5
:105320005B1B13434B604B465B68300013404A469F
:105330002B435360FFF78AFE270036E7A3680B6113
:10534000E3684B61242A10D05B4610341833BEE763
:105350003000FFF77BFE002727E723691831036140
:105360000300626918334261F0E623698B615B4692
:1053700062692033CA611834A9E72100380000F0BF
:10538000EBFA74E7A3680B61E3684B61242A03D04E
:105390005B461034183364E723698B615B466269AE
:1053A0002033CA6118345CE770100020F0B5C6469F
:1053B00000B50C228B5E07000C001A0732D4802542
:1053C0004A682D011D438D81002A4EDDA66A002EFC
:1053D0004ED03A68E169904600223A60DB044BD433
:1053E000002201233800B0470200431C00D172E0C4
:1053F0000C23E55EA66AE1696D0706D56368D21ADB
:10540000236B002B01D0E36BD21A00233800B04786
:10541000431C33D139680C23E25E1D2949D940234E
:1054200013431EE00E69002E22D00D680022AD1B32
:105430000E609B0700D14A69A260002D04DC17E0D2
:1054400036182D1A002D13DD636A32009846380095
:105450002B00E169C0470028F2DC4022A3891343F6
:105460001BB20120A381404203E0CA6B002AADDCDD
:10547000002080BCB846F0BD226DBDE70C22A35EC3
:105480001A4A1A40A2810022626022692260DB046B
:1054900000D520654346216B3B600029E8D02300FE
:1054A0004033994202D0380000F0B2FB002323635E
:1054B000DEE701260E4B35000B411D401E42AED1EA
:1054C0000A4B65601340A38123692360D204E1D5B0
:1054D0000029DFD1DDE73B68002B00D188E71D2BD9
:1054E00001D0162BB9D143463B60C1E7FFF7FFFF60
:1054F000FEFFBFDF70B505000C00002802D0436B33
:10550000002B27D00C22A35E002B11D0626ED20795
:1055100001D49B050ED528002100FFF747FF636EDD
:105520000500DB0702D4A3899B050FD5280070BDB9
:105530000025FBE7A06D00F0D1FA28002100FFF75D
:1055400035FF636E0500DB07F0D4ECE7A06D00F0DB
:10555000C7FAEBE700F0F8F8D4E7C04670B5041ED0
:105560002AD0194B1D68002D02D06B6B002B17D071
:105570000C22A35E002B11D0626ED20701D49B05D2
:1055800012D528002100FFF711FF636E0500DB072D
:1055900002D4A3899B050BD5280070BD0025FBE72D
:1055A000280000F0D1F8E3E7A06D00F097FAE8E7F3
:1055B000A06D00F095FAEFE7044A0549054800F0B0
:1055C000EFF80500E8E7C0468414002078140020B6
:1055D000F55400108814002010B5034A034904480C
:1055E00000F0DEF810BDC04678140020E55D001024
:1055F0008814002041680B4B10B50400994201D07B
:1056000000F0F0FBA168084B994202D0200000F0A6
:10561000E9FBE168054B994202D0200000F0E2FB73
:1056200010BDC04674190020DC190020441A002067
:10563000F8B5CE4647463B4C3B4B3C4A2000002544
:1056400080B51A600423082200215C302560656063
:10565000A560656625616561A561E360FCF7D0FB27
:105660002000334B334F344E99462362334B58302E
:105670009846A762E6626362E46100F02BFACC23ED
:10568000E5502F4B20006367802300210822C4309F
:10569000E550A566E5662567A567E567FCF7B0FBFD
:1056A000220084236832E2504A460433E2504246E4
:1056B00020000433E2500433E750C0300433E65096
:1056C00000F008FAD0232000E5500433E5500433FD
:1056D000E5501C4A5C33E550583BE2500433E5503A
:1056E0002D300433E550002104330822FF30E5500B
:1056F000FCF786FB2200EC23D032E2504A4604330A
:10570000E250200042460433E25029300433E7508F
:10571000FF300433E65000F0DDF9C0BCB946B046B6
:10572000F8BDC04674190020AC1A0020D9550010ED
:10573000B55800101D5900104D590010DD580010CB
:10574000090001001200020070B50400094D280094
:1057500000F0C4F9636B002B05D1074B6363074B63
:105760001B68002B03D0280000F0BAF970BDFFF7CA
:105770005FFFF8E73C190020F5550010AC1A002037
:1057800010B5024800F0AAF910BDC0463C1900202F
:1057900010B5024800F0A4F910BDC0463C19002025
:1057A000F8B54746CE46884680B5814617000026A4
:1057B0007D68BC68013D0DD4A389012B07D90E2259
:1057C000A35E013303D021004846C0470643683436
:1057D000013DF1D23F68002FEAD13000C0BCB9468C
:1057E000B046F8BDF0B5C64600B51D00170086B03E
:1057F00001AB039301236F43061E90460C9C01915D
:1058000002970597049302D0436B002B3CD00C23E6
:10581000E25E636EDB0701D493052AD580239B01EA
:105820001A4205D11343A381194A636E134063667C
:105830002100300003AA00F03DFB636E002811D068
:10584000DB0708D505984146381AFCF7E1F906B0A0
:1058500080BCB846F0BDA3899B05F3D4A06D00F0D1
:105860003FF9EFE7DB0702D4A3899B0507D52800A2
:10587000EDE7A06D00F032F90C23E25ECEE7A06DFB
:1058800000F02EF92800E2E7FFF75EFFBFE7C04611
:10589000FFDFFFFF10B50400054882B000680093E9
:1058A00013000A002100FFF79DFF02B010BDC046A3
:1058B0008414002070B50C000E25495F00F0CAF872
:1058C000002803DB236D1B18236570BDA389024AE2
:1058D0001340A381F9E7C046FFEFFFFFF8B50C00C6
:1058E0001F000C23C95E05001600CB050AD40A4B25
:1058F000320019402800A1810E23E15E3B0000F038
:10590000CFF8F8BD0E23E15E0022022300F08EF8EE
:105910000C23E15EEBE7C046FFEFFFFF70B50C0024
:105920000E25495F00F082F8431C07D08023A2892E
:105930005B0113431BB22065A38170BDA389024A9A
:1059400013401BB2F8E7C046FFEFFFFF10B50E2370
:10595000C95E00F059F810BDF0B588420AD98B181D
:10596000984207D2531E002A03D0CA5CC254013B9E
:10597000FBD2F0BD05000F2A0AD8561E002AF8D027
:105980000023CC5C1A00EC5401339642F9D1F0E7C5
:105990000324030026000B431E401C4230D1150097
:1059A000103D2D0903000C00AC462F013F1825685F
:1059B0001D6065685D60A5689D60E5681034DD6008
:1059C0001D001033BD42F2D165460F230C24013572
:1059D0002D01491913404519144213D08C59AC516B
:1059E00004369C1B032CF9D8043B9B0801339B0015
:1059F000ED18C91803231A40561E002AC0D1B8E773
:105A0000561EBDE71A00B8E7002370B5064C050026
:105A100008002360FCF760FA431C00D070BD2368C7
:105A2000002BFBD02B60F9E7B021002070B50400FB
:105A3000080011001A000023054D2B60FCF750FAF6
:105A4000431C00D070BD2B68002BFBD02360F9E70E
:105A5000B021002070B50400080011001A000023D6
:105A6000054D2B60FCF714FA431C00D070BD2B6869
:105A7000002BFBD02360F9E7B0210020002370B594
:105A8000064C050008002360FCF7E8F9431C00D031
:105A900070BD2368002BFBD02B60F9E7B0210020FC
:105AA00070B50400080011001A000023054D2B609A
:105AB000FCF700FA431C00D070BD2B68002BFBD014
:105AC0002360F9E7B0210020014B18687047C046F9
:105AD000841400207047C0467047C0467047C046D7
